{
  "_format": "hh-sol-artifact-1",
  "contractName": "BuyMeACoffe",
  "sourceName": "contracts/BuyMeACoffe.sol",
  "abi": [
    {
      "inputs": [],
      "stateMutability": "nonpayable",
      "type": "constructor"
    },
    {
      "anonymous": false,
      "inputs": [
        {
          "indexed": true,
          "internalType": "address",
          "name": "sender",
          "type": "address"
        },
        {
          "indexed": false,
          "internalType": "uint256",
          "name": "timestamp",
          "type": "uint256"
        },
        {
          "indexed": false,
          "internalType": "string",
          "name": "name",
          "type": "string"
        },
        {
          "indexed": false,
          "internalType": "string",
          "name": "message",
          "type": "string"
        }
      ],
      "name": "NewMemo",
      "type": "event"
    },
    {
      "inputs": [
        {
          "internalType": "string",
          "name": "_coffeBuyer",
          "type": "string"
        },
        {
          "internalType": "string",
          "name": "_message",
          "type": "string"
        }
      ],
      "name": "buyCoffe",
      "outputs": [],
      "stateMutability": "payable",
      "type": "function"
    },
    {
      "inputs": [],
      "name": "getContractFunds",
      "outputs": [
        {
          "internalType": "uint256",
          "name": "",
          "type": "uint256"
        }
      ],
      "stateMutability": "view",
      "type": "function"
    },
    {
      "inputs": [],
      "name": "getMemos",
      "outputs": [
        {
          "components": [
            {
              "internalType": "address",
              "name": "sender",
              "type": "address"
            },
            {
              "internalType": "uint256",
              "name": "timestamp",
              "type": "uint256"
            },
            {
              "internalType": "string",
              "name": "name",
              "type": "string"
            },
            {
              "internalType": "string",
              "name": "message",
              "type": "string"
            }
          ],
          "internalType": "struct BuyMeACoffe.Memo[]",
          "name": "",
          "type": "tuple[]"
        }
      ],
      "stateMutability": "view",
      "type": "function"
    },
    {
      "inputs": [],
      "name": "getOwnerAddress",
      "outputs": [
        {
          "internalType": "address",
          "name": "",
          "type": "address"
        }
      ],
      "stateMutability": "view",
      "type": "function"
    },
    {
      "inputs": [],
      "name": "withdrawTips",
      "outputs": [],
      "stateMutability": "payable",
      "type": "function"
    }
  ],
  "bytecode": "0x608060405234801561001057600080fd5b5033600160006101000a81548173ffffffffffffffffffffffffffffffffffffffff021916908373ffffffffffffffffffffffffffffffffffffffff160217905550610b26806100616000396000f3fe60806040526004361061004a5760003560e01c80630b96ef831461004f5780630c4f65bd1461006b5780633aaa74b214610096578063865c5172146100a0578063e0cb8a81146100cb575b600080fd5b61006960048036038101906100649190610600565b6100f6565b005b34801561007757600080fd5b5061008061027e565b60405161008d919061084d565b60405180910390f35b61009e6102a8565b005b3480156100ac57600080fd5b506100b561030a565b6040516100c29190610868565b60405180910390f35b3480156100d757600080fd5b506100e06104ed565b6040516100ed91906108aa565b60405180910390f35b60003411610139576040517f08c379a00000000000000000000000000000000000000000000000000000000081526004016101309061088a565b60405180910390fd5b600060405180608001604052803373ffffffffffffffffffffffffffffffffffffffff16815260200142815260200184815260200183815250908060018154018082558091505060019003906000526020600020906004020160009091909190915060008201518160000160006101000a81548173ffffffffffffffffffffffffffffffffffffffff021916908373ffffffffffffffffffffffffffffffffffffffff1602179055506020820151816001015560408201518160020190805190602001906102089291906104f5565b5060608201518160030190805190602001906102259291906104f5565b5050503373ffffffffffffffffffffffffffffffffffffffff167fc56140e05f516509ae28110e0f72e17558a7561630dad2647c3ae87d986e365c428484604051610272939291906108c5565b60405180910390a25050565b6000600160009054906101000a900473ffffffffffffffffffffffffffffffffffffffff16905090565b600160009054906101000a900473ffffffffffffffffffffffffffffffffffffffff1673ffffffffffffffffffffffffffffffffffffffff166108fc479081150290604051600060405180830381858888f1935050505061030857600080fd5b565b60606000805480602002602001604051908101604052809291908181526020016000905b828210156104e457838290600052602060002090600402016040518060800160405290816000820160009054906101000a900473ffffffffffffffffffffffffffffffffffffffff1673ffffffffffffffffffffffffffffffffffffffff1673ffffffffffffffffffffffffffffffffffffffff168152602001600182015481526020016002820180546103c190610a4f565b80601f01602080910402602001604051908101604052809291908181526020018280546103ed90610a4f565b801561043a5780601f1061040f5761010080835404028352916020019161043a565b820191906000526020600020905b81548152906001019060200180831161041d57829003601f168201915b5050505050815260200160038201805461045390610a4f565b80601f016020809104026020016040519081016040528092919081815260200182805461047f90610a4f565b80156104cc5780601f106104a1576101008083540402835291602001916104cc565b820191906000526020600020905b8154815290600101906020018083116104af57829003601f168201915b5050505050815250508152602001906001019061032e565b50505050905090565b600047905090565b82805461050190610a4f565b90600052602060002090601f016020900481019282610523576000855561056a565b82601f1061053c57805160ff191683800117855561056a565b8280016001018555821561056a579182015b8281111561056957825182559160200191906001019061054e565b5b509050610577919061057b565b5090565b5b8082111561059457600081600090555060010161057c565b5090565b60006105ab6105a68461093b565b61090a565b9050828152602081018484840111156105c357600080fd5b6105ce848285610a0d565b509392505050565b600082601f8301126105e757600080fd5b81356105f7848260208601610598565b91505092915050565b6000806040838503121561061357600080fd5b600083013567ffffffffffffffff81111561062d57600080fd5b610639858286016105d6565b925050602083013567ffffffffffffffff81111561065657600080fd5b610662858286016105d6565b9150509250929050565b600061067883836107c5565b905092915050565b610689816109d1565b82525050565b610698816109d1565b82525050565b60006106a98261097b565b6106b3818561099e565b9350836020820285016106c58561096b565b8060005b8581101561070157848403895281516106e2858261066c565b94506106ed83610991565b925060208a019950506001810190506106c9565b50829750879550505050505092915050565b600061071e82610986565b61072881856109af565b9350610738818560208601610a1c565b61074181610adf565b840191505092915050565b600061075782610986565b61076181856109c0565b9350610771818560208601610a1c565b61077a81610adf565b840191505092915050565b60006107926011836109c0565b91507f496e737566696369656e742046756e64730000000000000000000000000000006000830152602082019050919050565b60006080830160008301516107dd6000860182610680565b5060208301516107f0602086018261082f565b50604083015184820360408601526108088282610713565b915050606083015184820360608601526108228282610713565b9150508091505092915050565b61083881610a03565b82525050565b61084781610a03565b82525050565b6000602082019050610862600083018461068f565b92915050565b60006020820190508181036000830152610882818461069e565b905092915050565b600060208201905081810360008301526108a381610785565b9050919050565b60006020820190506108bf600083018461083e565b92915050565b60006060820190506108da600083018661083e565b81810360208301526108ec818561074c565b90508181036040830152610900818461074c565b9050949350505050565b6000604051905081810181811067ffffffffffffffff8211171561093157610930610ab0565b5b8060405250919050565b600067ffffffffffffffff82111561095657610955610ab0565b5b601f19601f8301169050602081019050919050565b6000819050602082019050919050565b600081519050919050565b600081519050919050565b6000602082019050919050565b600082825260208201905092915050565b600082825260208201905092915050565b600082825260208201905092915050565b60006109dc826109e3565b9050919050565b600073ffffffffffffffffffffffffffffffffffffffff82169050919050565b6000819050919050565b82818337600083830152505050565b60005b83811015610a3a578082015181840152602081019050610a1f565b83811115610a49576000848401525b50505050565b60006002820490506001821680610a6757607f821691505b60208210811415610a7b57610a7a610a81565b5b50919050565b7f4e487b7100000000000000000000000000000000000000000000000000000000600052602260045260246000fd5b7f4e487b7100000000000000000000000000000000000000000000000000000000600052604160045260246000fd5b6000601f19601f830116905091905056fea2646970667358221220e6cdedc98be12c655111f5237b49c49ef1f71e0f61e5cc51a2e678e9f58c01ba64736f6c63430008000033",
  "linkReferences": {},
  "deployedLinkReferences": {}
}